S011000047534D5F536C6176652E73726563D2
S11300000C942A000C9447000C9447000C9447006D
S11300100C9447000C9447000C9447000C94470040
S11300200C9447000C9447000C9447000C94470030
S11300300C9447000C9449000C9447000C9447001E
S11300400C9447000C9447000C9447000C94470010
S11300500C94470011241FBECFE5D8E0DEBFCDBF0E
S113006010E0A0E6B0E0EAEEF9E002C005900D92DF
S1130070AE3EB107D9F721E0AEEEB0E001C01D926B
S1130080A039B207E1F70E9447010C94F3040C94E1
S113009000001F920F920FB60F9211248F939F931B
S11300A0EF93FF93E0918E01F0918F018CB1E251B7
S11300B0FF4F808380918E0190918F0101969093E0
S11300C08F0180938E01FF91EF919F918F910F90FB
S11300D00FBE0F901F9018951F93CF93DF93EC01E1
S11300E010EA10928F0110928E01CE010E94B70186
S11300F02FEF89E698E1215080409040E1F700C05D
S1130100000060E670E08EEE90E00E94EF01892B23
S113011089F0AFEFB9E628E1A150B0402040E1F703
S113012000C0000080EAEEEEF0E0DF011D928A9547
S1130130E9F711C0BFEF2DE389E4B15020408040BE
S1130140E1F700C00000EEEEF0E0DF01212F1D9288
S11301502A95E9F7C6CFDF91CF911F91089583E6E1
S113016090E00E946C000895EF92FF920F931F930A
S1130170CF93DF93CDB7DEB7A3970FB6F894DEBF66
S11301800FBECDBF8B0110928F0110928E019F93F1
S11301908F9389E690E09F938F93CE0101967C0123
S11301A09F938F930E940902C7010E94B7019FEF9A
S11301B021EE84E0915020408040E1F700C000002F
S11301C0E0918E01F0918F01E251FF4F0F900F905B
S11301D00F900F900F900F9080818E33C1F5109285
S11301E08F0110928E010F2EFEEEEF2EF0E0FF2E07
S11301F0F02DF70101900020E9F73197AF014E5E31
S1130200504060E070E0C7010E94E801C8010E940C
S1130210B7018AE10E94B3019FEF22E587E0915084
S113022020408040E1F700C0000010928F0110923E
S11302308E01F70101900020E9F73197AF014E5E7E
S1130240504060E070E0C7010E94E80113C0809153
S11302508E0190918F01019690938F0180938E016E
S1130260E0918E01F0918F01E251FF4F80818E3336
S113027071F7B5CFA3960FB6F894DEBF0FBECDBF0E
S1130280DF91CF911F910F91FF90EF9008951092FD
S11302908F0110928E0160E875E280E090E00E9488
S11302A0850178940E94AF002FEF89E698E12150F0
S11302B080409040E1F700C000000E947A01A79AB4
S11302C00E9481018823E1F3AF9A2FEF8DE399E433
S11302D0215080409040E1F700C00000AF9887E7CC
S11302E090E00E946C0062E870E081EE90E00E9471
S11302F0B400E6CF87B38F7487BBBE9A80E48DB910
S11303000895779BFECF8FB108952AB128692AB941
S113031020B5266820BDDC01CB01880F991FAA1FD8
S1130320BB1F880F991FAA1FBB1F9C01AD01220F81
S1130330331F441F551F220F331F441F551F60E0F6
S113034072E18AE790E00E94C6018FEF820F89B9BB
S1130350DA01C9010197A109B109892F9A2FAB2F9D
S1130360BB2780BD08958CB95D9BFECF0895CF93C4
S1130370DF93EC018881882331F021960E94B30138
S113038089918111FBCFDF91CF910895A1E21A2EBB
S1130390AA1BBB1BFD010DC0AA1FBB1FEE1FFF1F25
S11303A0A217B307E407F50720F0A21BB30BE40B75
S11303B0F50B661F771F881F991F1A9469F76095BC
S11303C07095809590959B01AC01BD01CF01089576
S11303D0DC0101C06D9341505040E0F70895FB01EA
S11303E051915523A9F0BF01DC014D9145174111ED
S11303F0E1F759F4CD010190002049F04D914015E9
S11304004111C9F3FB014111EFCF81E090E0019765
S11304100895AEE0B0E0EFE0F2E00C94CA040D8978
S11304201E8986E08C831A8309838FEF9FE79E835E
S11304308D83AE01475E5F4F6F89788DCE01019643
S11304400E942B02EF81F885E00FF11F10822E9697
S1130450E4E00C94E604ABE0B0E0E1E3F2E00C94F9
S1130460BC046C017B018A01FC0117821682838122
S113047081FFCCC1CE0101963C01F6019381F701C5
S113048093FD859193FF81917F01882309F4BAC17B
S1130490853239F493FD859193FF81917F018532F3
S11304A029F4B60190E00E942204E7CF912C212C7C
S11304B0312CFFE1F315D8F08B3279F038F4803227
S11304C079F08332A1F4232D20611DC08D3261F0B7
S11304D0803369F4232D216016C0832D8260382E69
S11304E0E32DE4603E2E2AC0F32DF8601DC037FCD6
S11304F02DC020ED280F2A3040F08E32B9F436FC9E
S113050081C1232D2064322E19C036FE06C08AE034
S1130510989E200D1124922E11C0EAE02E9E200DEB
S11305201124222EF32DF0623F2E08C08C3621F4C4
S1130530832D8068382E02C0883641F4F70193FD7C
S1130540859193FF81917F018111B3CF982F9F7D76
S11305509554933028F40C5F1F4F9FE399830DC08B
S1130560833631F0833771F0833509F059C021C0E7
S1130570F801808189830E5F1F4F88248394912C16
S1130580530113C02801F2E04F0E511CF801A08062
S1130590B18036FE03C0692D70E002C06FEF7FEFBB
S11305A0C5010E9417044C018201F32DFF773F2EF1
S11305B016C0280122E0420E511CF801A080B1802F
S11305C036FE03C0692D70E002C06FEF7FEFC501F6
S11305D00E940C044C01F32DF0683F2E820133FC81
S11305E01BC0822D90E088169906B0F4B60180E213
S11305F090E00E9422042A94F4CFF50137FC8591FF
S113060037FE81915F01B60190E00E94220421101F
S11306102A9421E0821A91088114910471F7E8C0A8
S1130620843611F0893641F5F80137FE07C0608140
S11306307181828193810C5F1F4F08C06081718139
S1130640072E000C880B990B0E5F1F4FF32DFF76BE
S11306503F2E97FF09C090958095709561957F4FC7
S11306608F4F9F4FF0683F2E2AE030E0A3010E9495
S11306705E04882E861845C0853731F4232D2F7EDD
S1130680B22E2AE030E025C0932D997FB92E8F3603
S1130690C1F018F4883579F0B5C0803719F088377F
S11306A021F0B0C0E92FE061BE2EB4FE0DC0FB2DD9
S11306B0F460BF2E09C034FE0AC0292F2660B22E72
S11306C006C028E030E005C020E130E002C020E1AF
S11306D032E0F801B7FE07C06081718182819381A5
S11306E00C5F1F4F06C06081718180E090E00E5F57
S11306F01F4FA3010E945E04882E8618FB2DFF77EE
S11307003F2E36FE0DC0232D2E7FA22E891458F4C1
S113071034FE0BC032FC09C0832D8E7EA82E05C08A
S1130720B82CA32C03C0B82C01C0B92CA4FE0FC054
S1130730FE01E80DF11D8081803321F49A2D997E0C
S1130740A92E09C0A2FE06C0B394B39404C08A2D96
S1130750867809F0B394A3FC11C0A0FE06C0B214BD
S113076088F4280C922C9B180EC0B21460F4B601C5
S113077080E290E00E942204B394F7CFB21418F4FC
S11307802B1802C0982C212CA4FE10C0B60180E3C3
S113079090E00E942204A2FE17C0A1FC03C088E7D7
S11307A090E002C088E590E0B6010CC08A2D8678FE
S11307B059F0A1FE02C08BE201C080E2A7FC8DE2E9
S11307C0B60190E00E942204891438F4B60180E353
S11307D090E00E9422049A94F7CF8A94F301E80DE2
S11307E0F11D8081B60190E00E9422048110F5CFB2
S11307F0222009F442CEB60180E290E00E94220455
S11308002A94F6CFF6018681978102C08FEF9FEF7D
S11308102B96E2E10C94D804FC01059061507040E1
S11308200110D8F7809590958E0F9F1F0895FC01B5
S11308306150704001900110D8F7809590958E0F0B
S11308409F1F08950F931F93CF93DF93FB01238181
S113085021FD03C08FEF9FEF2CC022FF16C04681FD
S11308605781248135814217530744F4A081B18113
S11308709D012F5F3F4F318320838C9326813781E5
S11308802F5F3F4F3783268314C08B01EC01FB019C
S11308900084F185E02D0995892BE1F6D80116969F
S11308A08D919C911797019617969C938E9316970A
S11308B0CE01DF91CF911F910F910895FA01AA27DC
S11308C0283051F1203181F1E8946F936E7F6E5F8F
S11308D07F4F8F4F9F4FAF4FB1E03ED0B4E03CD03D
S11308E0670F781F891F9A1FA11D680F791F8A1F20
S11308F0911DA11D6A0F711D811D911DA11D20D087
S113090009F468943F912AE0269F11243019305D40
S11309103193DEF6CF010895462F4770405D419331
S1130920B3E00FD0C9F7F6CF462F4F70405D4A337E
S113093018F0495D31FD4052419302D0A9F7EACF46
S1130940B4E0A6959795879577956795BA95C9F775
S113095000976105710508959B01AC010A2E069468
S11309605795479537952795BA95C9F7620F731F21
S1130970841F951FA01D08952F923F924F925F925E
S11309806F927F928F929F92AF92BF92CF92DF929B
S1130990EF92FF920F931F93CF93DF93CDB7DEB700
S11309A0CA1BDB0B0FB6F894DEBF0FBECDBF099494
S11309B02A88398848885F846E847D848C849B84EB
S11309C0AA84B984C884DF80EE80FD800C811B81F9
S11309D0AA81B981CE0FD11D0FB6F894DEBF0FBE28
S10D09E0CDBFED010895F894FFCF98
S11309EA4F4B00415445300D0041542B434D47535E
S11309FA3D222573220D0041542B434D47463D3178
S1130A0A0D00416C63686F6C20646574656374657A
S1130A1A642E20427573204E756D6E65723A2031CC
S1130A2A3233342E20526F7574653A2032353528A4
S1130A3A4B6F74746177612D204D742E204C61764E
S1130A4A656E6961292E20447269766572204E6149
S1130A5A6D653A20536164756E204B756D617261E0
S1110A6A002B3934373136383330383432000B
S9030000FC
